S01C00003370692D6C696E65666F6C6C6F7765722D7069642E7372656353
S11300000C9434000C9451000C9451000C94510045
S11300100C9451000C9451000C9451000C94510018
S11300200C9451000C9447030C9451000C9451000F
S11300300C9451000C9451000C9451000C945100F8
S11300400C9451000C9451000C9451000C945100E8
S11300500C9451000C9451000C9451000C945100D8
S11300600C9451000C94510011241FBECFEFD8E022
S1130070DEBFCDBF11E0A0E0B1E0E6EAF5E102C0E9
S113008005900D92AE30B107D9F721E0AEE0B1E0B2
S113009001C01D92AF32B207E1F70E9439010C94FE
S11300A0D10A0C940000883058F421E030E001C0FB
S11300B0220F8A95EAF7AAE2B0E0EBE2F0E023C06F
S11300C08E3068F490E0089721E030E001C0220F00
S11300D08A95EAF7A4E2B0E0E5E2F0E014C08531E5
S11300E068F490E00E9721E030E001C0220F8A9579
S11300F0EAF7A7E2B0E0E8E2F0E005C020E0A0E023
S1130100B0E0E0E0F0E06F3F19F48081822709C09D
S1130110662319F08081822B04C09081822F809500
S1130120892380838C91822B8C9308950F931F9342
S1130130CF93DF93CDB7DEB728970FB6F894DEBF21
S11301400FBECDBF88E0E6E0F1E0DE01119601903C
S11301500D928A95E1F721E140ED57E068E0CE0188
S113016001960E94490408C06FEF8DE00E9453007D
S113017088EC90E00E948F0380E10E943C03882376
S113018099F380E10E94280360E08DE00E9453000F
S113019088EE93E00E948F030CEE1FEF08321105E6
S11301A028F066EA7FEF8AE590E004C06AE570E033
S11301B086EA9FEF0E94F90261E08EE00E945300FC
S11301C081E00E94CD0884E190E00E948F030F5FDC
S11301D01F4F0C33110511F760E08EE00E945300AD
S11301E060E070E080E090E00E94F90208C06FEFE8
S11301F08FE00E94530088EC90E00E948F0380E11E
S11302000E943C03882399F380E10E94280360E064
S11302108FE00E94530028960FB6F894DEBF0FBEFD
S1130220CDBFDF91CF911F910F9108958C3419F0B8
S1130230823581F405C06AE570E086EA9FEF04C068
S113024066EA7FEF8AE590E00E94F90288EC90E08C
S11302500C948F030895811106C0611106C04423D4
S113026031F084E508958CE4089582E5089582E4EC
S11302700895CF93DF93CDB7DEB764970FB6F894A4
S1130280DEBF0FBECDBF0E949600C12CD12C7601DB
S1130290A12CB12C50E1452E57E2552E612C712C26
S11302A064E1862E912C75EA272E312C01C0580169
S11302B061E080E10E94530061E0CE0101960E945A
S11302C0970729813A812D3B42E0340758F08B810E
S11302D09C818D3B924030F081E04D815E814D3BAD
S11302E0524008F480E04F8558894D3B524030F12C
S11302F04D855E854D3B524008F161E04B855C8540
S11303004D3B524008F460E06623C9F049855A85A4
S11303104D3B5240A0F04F8158854D3B524078F000
S11303204D815E814D3B524050F04B815C814D3B91
S1130330524028F02D3B324020F401C060E040E000
S113034001C041E00E942B010E94160161E0CE0130
S113035001960E9497078C010C5A1D40C801AA27D8
S113036097FDA095BA2FC80ED91EEA1EFB1EC70121
S1130370B601A30192010E942F09298B3A8B4B8B62
S11303805C8BC801B4010E94F90889899A89680FB5
S1130390791F98012A193B09C901880F991F820FF7
S11303A0931F97FD019695958795860F971F863A1B
S11303B0910574F48B352FEF92071CF097FD03C061
S11303C009C08BE59FEF65EA70E08B559F4F07C02E
S11303D085EA90E0B101681B790B85EA90E00E9400
S11303E0F90265CFFC0111821082138212821582F8
S11303F014821682683068F489E290E091838083E5
S11304008BE290E0938382838AE290E095838483F5
S113041011C06E30C0F483E290E09183808385E262
S113042090E09383828384E290E09583848370E0F8
S11304306850704081E090E002C0880F991F6A956F
S1130440E2F7868308956531B8F486E290E09183FB
S1130450808388E290E09383828387E290E09583AF
S1130460848370E06E50704081E090E002C0880F99
S1130470991F6A95E2F786830895FC01A481B581EA
S11304808681662321F09C91982B9C9308959C91DE
S1130490809589238C930895FC016F3F31F4A281E8
S11304A0B3818C91968189270CC0A281B381868106
S11304B0662321F09C91982B9C9308959C918095A0
S11304C089238C930895A7E0B0E0E9E6F2E00C9468
S11304D06309282FF62E8E010F5F1F4FC801622F6C
S11304E00E94F201C8016F2D0E944C02C80161E014
S11304F00E943D022796E5E00C947F09E0EBF0E0D2
S113050083EF8083808184BDE1EBF0E082E080832F
S1130510808185BDE4EBF0E010828081E3EBF0E0C4
S11305208083808188BD88B587BD86E060E00E94B5
S1130530630285E060E00E9463028BE060E00E9459
S1130540630283E060E00E946302089580910E01DB
S1130550882329F481E080930E010E947E0208958D
S1130560CF93DF93EC010E94A602D7FF05C0D0957C
S1130570C195DF4F81E001C080E0CF3FD10519F084
S113058014F0CFEFD0E0882319F018BCC7BD02C027
S1130590C8BD17BCDF91CF910895CF93DF93EC01D1
S11305A00E94A602D7FF05C0D095C195DF4F81E018
S11305B001C080E0CF3FD10519F014F0CFEFD0E0B7
S11305C0882329F01092B400C093B30004C0C093F0
S11305D0B4001092B300DF91CF910895CF93DF93CD
S11305E0EB010E94B002CE010E94CD02DF91CF91B7
S11305F008950E94EE02089584B18D7C84B985B17A
S1130600826385B985E090E06F9364E06A95F1F7C1
S11306106F910197C9F7089580910F01882329F4F8
S113062081E080930F010E94FC0208951F93182F0C
S11306300E940C0383B18123E9F38AE090E00E94D5
S11306408F0383B18123B1F383B181231F91089573
S11306500E9416030895A1E0B0E0E1E3F3E00C94F6
S1130660660989830E940C0393B19095898189233B
S11306702196E2E00C9482090E942B0308956F9363
S113068064E06A95F1F76F910197C9F708952F9285
S11306908F939F932FB680911D0190911E01019617
S11306A080931D0190931E0190E080911F01891F8A
S11306B080931F01909125019C5F90932501809167
S11306C0240180519742C0F0909325018093240126
S11306D080912001909121010196809320019093B3
S11306E0210190E080912201891F80932201809151
S11306F02301891F809323012FBE9F918F912F90F7
S11307001895CF93DF93EC0105C088EE93E00E9427
S11307103F0321972097C9F7DF91CF9108950E9455
S1130720810308956F9364E06A95F1F76F910197DF
S1130730C9F70895A7E0B0E0E0EAF3E00C94640997
S11307408C01FC01118210821382128215821482A0
S113075017821682613118F080E1808702C0FC01A3
S11307606087F801208BCE010196642F0E94F2016C
S11307708F81F80181878B819C81938782878D810A
S11307809E81958784872796E4E00C948009FC0178
S1130790A485B585109779F08C919185892B8C93DC
S11307A0A285B3859C918185809589238C9388EC5F
S11307B090E00E9492030895FC01A485B5851097EA
S11307C071F08C919185892B8C93A285B3858C9142
S11307D09185892B8C9388EC90E00E949203089574
S11307E0A7E0B0E0E6EFF3E00C9456097C011B01AE
S11307F0642F3901402F20E00E949A0397012F5B58
S11308003F4FF9011082D701AE5BBF4F1C92C70165
S11308108D5B9F4FFC011082F70177866686662404
S11308202E010894411C511C6C015D01490129C031
S1130830062D10E0F101E00FF11FC20160810E945A
S1130840F2012F81F701E00FF11F218B89819A8139
S1130850F801EE0FFF1FEE0DFF1D92A381A383325B
S1130860910511F4F40109C08632910511F4F501E2
S113087004C08932910521F4F6018081822B8083A2
S11308806394F7018085681698F22796E2E10C9448
S11308907209A0E0B0E0EFE4F4E00C945E097C019E
S11308A0162F6A01022F84E490E00E949909A82E71
S11308B0E5015E01B92EE501209761F0C501B7019C
S11308C0412F96010E94F003B0922A01A0922901BF
S11308D081E001C080E0CDB7DEB7EAE00C947A098C
S11308E0A0E0B0E0E6E7F4E00C945B09EC015B0106
S11308F0FC01EF5BFF4F9080FC01EE5BFF4F8080BB
S1130900FC01ED5BFF4F708080E009C0E82FF0E050
S1130910EE0FFF1FEA0DFB1D118210828F5F988579
S11309208917A0F384B121E4E22EF12CEC0EFD1E14
S1130930D7019C91892B84B987B18E010E5B1F4F1F
S1130940F8019081892B87B98AB193E4C92ED12CFF
S1130950CC0EDD1ED6019C91892B8AB985B1F70195
S11309609081892B85B988B1D8019C91892B88B94C
S11309708BB1F6019081892B8BB98AE090E00E94BB
S1130980920394B1D7018C918095892384B997B14E
S1130990F80180818095892387B99AB1D6018C9119
S11309A0809589238AB995B1F7018081809589233F
S11309B085B998B1D8018C918095892388B99BB168
S11309C0F6018081809589238BB9C090B000E090B6
S11309D0B1008091B00083608093B00082E0809386
S11309E0B1000091B20080E090E039C02091B200E3
S11309F0201B820F911D020FF3B0F91409F04DC0B2
S1130A0096B0981409F049C029B1271509F045C0DA
S1130A1024C0212F30E0A901440F551FF501E40F34
S1130A20F51F608171816115710599F44C0F5D1F8B
S1130A30DA0191964D915C919297DA014C912C0FC9
S1130A403D1FD90151962C915197422311F4918362
S1130A5080831F5F28851217E0F2892C9F2C2E8536
S1130A603F858217930710F2C092B000E092B10064
S1130A7020E00FC0E22FF0E0EE0FFF1FEA0DFB1D98
S1130A8080819181009721F48E859F859183808355
S1130A902F5F8885281770F305C0F3B096B079B03E
S1130AA010E0D8CFCDB7DEB7EDE00C947709EF9224
S1130AB0FF920F931F93CF93DF93FC019B0100914F
S1130AC07C0010917A00E7B0F8B080917A0086FD3E
S1130AD0FCCF80E00AC0A82FB0E0AA0FBB1FA20F72
S1130AE0B31F11961C921E928F5F9085891798F3FD
S1130AF097B182A18095892387B998B182A1809505
S1130B00892388B987E880937A0070E029C0DF01DF
S1130B10A60FB11D51968C915197806480937C00EF
S1130B2080917A00806480937A0080917A0086FDB7
S1130B30FCCFA62FB0E0AA0FBB1FA20FB31F40919A
S1130B407800509179008D919C911197840F951F95
S1130B5011969C938E936F5F80856817C0F27F5FB8
S1130B6081A1781710F460E0F7CF40E014C0C42FDF
S1130B70D0E0CC0FDD1FC20FD31F61A170E0CB0109
S1130B8095958795A881B9818A0F9B1F0E94E508D6
S1130B90798368834F5F8085481748F300937C000E
S1130BA010937A00F8B8E7B8CDB7DEB7E6E00C9456
S1130BB07E09A0E2B0E0EFEDF5E00C9461098C0150
S1130BC07B01D42E842F8150823018F4C8010E94F6
S1130BD0DC03D80150968C915097882389F4C8017E
S1130BE0B7010E947004C8010E94C703BD2DB23032
S1130BF0D9F5C801BE016F5F7F4F0E94700410C019
S1130C00C801B7010E945705C8010E94C703ED2D12
S1130C10E23051F5C801BE016F5F7F4F0E94570556
S1130C2060E0AE014F5F5F4F1BC0862F90E0880FDE
S1130C30991FF701E80FF91F840F951FD8011E961D
S1130C402D913C911F97DC018D919C911197281B4C
S1130C50390B80819181820F931F918380836F5F11
S1130C60F8018085681708F3A096E7E00C947D09E5
S1130C708F929F92AF92BF92CF92DF92FF920F9387
S1130C801F93CF93DF93EC01C62E072FF42E42302F
S1130C9011F0FF2051F48C819D81009709F4A0C0CC
S1130CA08E819F81009709F49BC08F2D81508230E3
S1130CB050F488819981009709F492C08A819B81BC
S1130CC0009709F48DC0CE016C2D702F4F2D0E941A
S1130CD0D905AC2CB02E00E010E0882499247AC009
S1130CE08F2D813059F4EA81FB81E00FF11FC08020
S1130CF0D180E881F981E00FF11F0DC08C819D81C5
S1130D00FF2061F4EE81FF81E00FF11FC080D180EC
S1130D10800F911FFC01408151812BC0800F911FD6
S1130D20FC0180819181E881F981E00FF11F40810C
S1130D305181CE84DF848417950710F4A60104C082
S1130D404C0D5D1D481B590BEE81FF81E00FF11F17
S1130D5080819181EA81FB81E00FF11F2081318143
S1130D60CE84DF848217930720F0C20ED31EC81AE4
S1130D70D90AC41AD50AD1F0F5016081718180E0E5
S1130D8090E09A0140E050E0621B730B840B950BDA
S1130D9028EE33E040E050E00E94D508960140E0A0
S1130DA050E00E942F0937FD0AC002C020E030E065
S1130DB0F3E0293E3F072CF028EE33E002C020E0A8
S1130DC030E0F501219331935F010894811C911C5B
S1130DD00E5F1F4F888590E0881699060CF480CF2B
S1130DE0DF91CF911F910F91FF90DF90CF90BF9033
S1130DF0AF909F908F900895A5E0B0E0E2E0F7E017
S1130E000C9456094C01C62EE72E2D830E943806F9
S1130E10D40118964C901897DE2C642D70E080E075
S1130E2090E028EE33E040E050E00E94D50869836A
S1130E307A838B839C83EE24FF24870166247724A2
S1130E40882499245401552436C0F6013081218127
S1130E5042E0242E312CC20CD31CC901492F582F37
S1130E601A012D81222329F088EE93E08219930937
S1130E701C0199EC291631042CF4A3E32A1631043D
S1130E8094F002C055245394B101882777FD8095CE
S1130E90982FA80197010E94D508860E971EA81EB8
S1130EA0B91E620C731C88EE93E0A0E0B0E0E80E7B
S1130EB0F91E0A1F1B1F89819A81AB81BC81E81628
S1130EC0F9060A071B0709F65520F1F4552408947E
S1130ED04108510824EF31E0429EC001439E900D29
S1130EE0529E900D1124209127013091280128173A
S1130EF03907B4F088EE93E0489E9001499E300D86
S1130F00589E300D11240EC0930140E050E0C501FD
S1130F10B4010E940D09209327013093280102C0D7
S1130F2020E030E0C9012596E2E10C9472099C01AD
S1130F30462F8091290190912A01B90120E00E9455
S1130F40FC060895A7E6B0E0E8EAF7E00C94560939
S1130F508C014B016A01A6962FAFA697DA018D91F9
S1130F609C9111970097E9F4F801808590E0880F2F
S1130F70991F0E949909D60111969C938E9300970C
S1130F8009F4E2C0FC0180E090E003C011921192E8
S1130F900196D80118962C91189730E08217930780
S1130FA0ACF3F40180819181009789F0EE24FF2451
S1130FB05E010894A11CB11CB1E46B2E712C6C0E63
S1130FC07D1EA1E24A2E512C4C0E5D1E23C0D80179
S1130FD018968C9190E0880F991F0E949909F4014A
S1130FE091838083009709F4AFC0FC0180E090E016
S1130FF0D80107C01E962D913C911F9721933193E0
S1131000019618962C91189730E08217930794F361
S11310108D01CCCFC801B501A6964FADA6970E940D
S1131020D905D80118968C911897E82FF0E0A59669
S1131030FFAFEEAFA5971301F501A3965FAE4EAED9
S1131040A397930140E050E0A8965FAE4EAEA897F8
S113105037C0E114F10461F0A896AEADBFADA89716
S11310606D917C911197808191816817790760F463
S113107080819181A896AEADBFADA89711969C933F
S11310808E93E114F10449F0D9016D917C9111978B
S1131090808191818617970728F480819181D901F5
S11310A08D939C934F5F5F4F2E5F3F4F3296A89670
S11310B08EAD9FADA8970296A8969FAF8EAFA897C6
S11310C0A596AEADBFADA5974A175B0714F2089479
S11310D0E11CF11CBAE0EB16F10409F09BCF80E0AF
S11310E090E02CC0F101419151911F01BC01660FA8
S11310F0771FD601ED91FC911197E60FF71F208120
S113110031812417350710F451834083A396EEAD43
S1131110FFADA39741915191A396FFAFEEAFA39773
S1131120D401ED91FC911197E60FF71F20813181D5
S11311304217530710F4518340830196F801208528
S113114030E08217930774F2C959DF4FE2E10C943F
S113115072091F93CF93DF93EC01162F862F8150D2
S1131160823058F4AE014E5F5F4FCE01BE0121E0E4
S11311700E94A207123019F00CC0662351F4BE017C
S11311806C5F7F4FAE014A5F5F4FCE0120E00E944B
S1131190A207DF91CF911F910895682F80912901B3
S11311A090912A010E94A9080895DB018F939F93CF
S11311B00E944B09BF91AF91A29F800D911DA39FE7
S11311C0900DB29F900D11240895AA1BBB1B51E1F1
S11311D007C0AA1FBB1FA617B70710F0A61BB70BA3
S11311E0881F991F5A95A9F780959095BC01CD0148
S11311F0089597FB072E16F4009407D077FD09D0C5
S11312000E94E50807FC05D03EF4909581959F4F18
S11312100895709561957F4F0895A1E21A2EAA1B37
S1131220BB1BFD010DC0AA1FBB1FEE1FFF1FA21792
S1131230B307E407F50720F0A21BB30BE40BF50B8F
S1131240661F771F881F991F1A9469F76095709518
S1131250809590959B01AC01BD01CF010895052EA9
S113126097FB16F4009407D057FD0DD00E940D098A
S113127007FC09D07EF490958095709561957F4F19
S11312808F4F9F4F089550954095309521953F4F2E
S11312904F4F5F4F08950E948D09A59F900DB49FF5
S11312A0900DA49F800D911D112408952F923F92BB
S11312B04F925F926F927F928F929F92AF92BF9262
S11312C0CF92DF92EF92FF920F931F93CF93DF930E
S11312D0CDB7DEB7CA1BDB0B0FB6F894DEBF0FBE6B
S11312E0CDBF09942A88398848885F846E847D84B8
S11312F08C849B84AA84B984C884DF80EE80FD80BA
S11313000C811B81AA81B981CE0FD11D0FB6F8942F
S1131310DEBF0FBECDBFED010895A29FB001B39F04
S1131320C001A39F01D0B29F700D811D1124911D96
S113133008950F931F93CF93DF938230910510F498
S113134082E090E0E0912D01F0912E0120E030E068
S1131350C0E0D0E023C04081518148175907A8F06C
S11313604817590761F482819381209719F09B8370
S11313708A832EC090932E0180932D0129C02115BC
S1131380310529F04217530710F0A90102C0BE012C
S1131390DF0102811381EF019A01F8013097D9F638
S11313A02115310509F1281B390B2430310590F43E
S11313B012968D919C9113976115710521F0FB0193
S11313C09383828304C090932E0180932D01FD01A9
S11313D0329644C0FD01E20FF31F81939193225092
S11313E031092D933C933AC020912B0130912C016B
S11313F0232B41F4209102013091030130932C01FD
S113140020932B0120910001309101012115310518
S113141041F42DB73EB74091040150910501241BBE
S1131420350BE0912B01F0912C01E217F307A0F4A6
S11314302E1B3F0B2817390778F0AC014E5F5F4F26
S11314402417350748F04E0F5F1F50932C0140932B
S11314502B018193919302C0E0E0F0E0CF01DF9192
S1131460CF911F910F910895EF92FF920F931F93C5
S1131470CF93DF93009709F48FC0DC011297139682
S11314801C921E921297E0902D01F0902E01E1140F
S1131490F10489F42D913C911197280F391F809103
S11314A02B0190912C018217930789F5B0932C019D
S11314B0A0932B0171C0E70120E030E001C0EA01F4
S11314C0CA17DB0738F44A815B819E014115510537
S11314D0B1F722C0BC0162507109FB01D383C283FE
S11314E000811181AC01400F511F4C175D0761F45D
S11314F048815981400F511F4E5F5F4F5183408394
S11315004A815B81538342832115310529F4B093C9
S11315102E01A0932D0140C0F901B383A283E901F8
S113152069917991C60FD71FAC17BD0779F4DC0117
S11315305E914E91460F571F4E5F5F4F518340831C
S113154012968D919C91139793838283A0E0B0E0CF
S113155002C0D7017C01F701828193810097C9F70A
S1131560C701029620813181820F931F20912B01A4
S113157030912C012817390779F4109729F4109227
S11315802E0110922D0104C013961C921E921297E4
S1131590F0922C01E0922B01CDB7DEB7E6E00C947B
S10915A07E09F894FFCF60
S11115A600002F012000000102040708090ABA
S9030000FC
